:1000000019C035C034C033C032C031C030C02FC079
:100010002EC02DC01EC22BC02AC029C028C027C098
:1000200026C025C024C023C022C021C020C01FC0BC
:100030001EC01DC011241FBECFEFCDBFDFE3DEBF4A
:100040001EE3A0E0BEE3E0EDF4E002C005900D92F7
:10005000A631B107D9F72EE3A6E1BEE301C01D9298
:10006000AE31B207E1F70E9483000C9466020C9453
:100070000000E0E0F6E0908590FDFDCFE0E0F6E0E6
:100080008683808581608087808580FDFDCF80911B
:100090001006909111069695879596958795969559
:1000A0008795089598E09093460480932408E0E2B1
:1000B000F8E083818823ECF7E0E2F8E08481648350
:1000C00083818823ECF7E0E2F8E084814483838134
:1000D0008823ECF78091240888E0809345040895F4
:1000E000E0E0FAE08AE0808313868285806182877F
:1000F00080E090E280A791A78285816082878081DD
:10010000816080830895A0E0B4E082E011968C9332
:10011000119715968C931597C0E2D4E010E21983DD
:100120001E8394E090930102E0E4F4E09DE091836B
:1001300098E09583E0E2F8E090819062908391816D
:100140009183908194609083918194609183908158
:100150009160908316968C931697E7E8F3E13197B8
:10016000F1F700C0000015968C9340E06FE089E63F
:100170000E94520040E060E080E70E9452008091BF
:10018000133E9091143E6091133E7091143E482F9F
:100190004295440F440F407C769567957695679518
:1001A0008091033E0E94520080910F3E9091103E3C
:1001B00060910F3E7091103E482F4295440F440FBE
:1001C000407C76956795769567958091023E0E9472
:1001D000520080910D3E90910E3E60910D3E7091C7
:1001E0000E3E482F4295440F440F407C769567950C
:1001F000769567958091013E0E9452008091113E54
:100200009091123E6091113E7091123E482F42959E
:10021000440F440F407C769567957695679580915D
:10022000003E0E945200E0EAF0E08081806280831C
:10023000818182608183E0E0F6E08081808381813A
:1002400083608183828182838281836082838681CD
:1002500085608683818581608187808181608083DC
:10026000E0E1F8E081858160818784858E63848701
:100270000E94700078941D83FFE72AE186E0F15028
:1002800020408040E1F700C00000F6CFCF92DF921F
:10029000EF92FF9280910B3E90910C3E20911C3E7C
:1002A00030911D3E821B930B811522E09207A4F42E
:1002B00081302EEF9207B4F02091093E30910A3E32
:1002C000289F6001299FD00C389FD00C11240D2C41
:1002D000000CEE08FF080FC0C12CD12C7601CA9487
:1002E000D39409C00F2ECC24C394FEEFDF2EEE244E
:1002F000EA94FE2CF02D2091183E3091193E820F89
:10030000931FAC01092E000C660B770B411522E000
:100310005207610571055CF08FEF91E08093183E04
:100320009093193E8FEF91E0A0E0B0E027C04130FC
:100330005E4F6F4F7F4F5CF481E09EEF8093183EDD
:100340009093193E81E09EEFAFEFBFEF17C080930F
:10035000183E9093193E4091073E5091083E80917F
:10036000183E9091193E489F9001499F300D589F2B
:10037000300D1124C901330FAA0BBB0B40911A3E5B
:1003800050911B3E2091133E3091143E6091053EEA
:100390007091063EE091133EF091143EE0931A3EB8
:1003A000F0931B3E8C0D9D1DAE1DBF1D421B530BBC
:1003B000469F9001479F300D569F300D1124220F0C
:1003C000232F221F330B3195820F931FA11DB11DC7
:1003D000AC01BD01BB2324F441505F4F6F4F7F4FF1
:1003E000452F562F672F772767FD7A958FEF91E07E
:1003F000A0E0B0E0841B950BA60BB70B1AF480E0CD
:1004000090E0DC01811524E09207A105B10524F0FC
:100410008FEF93E0A0E0B0E08093133E9093143E02
:100420004091133E5091143E6091133E7091143EE2
:100430004295440F440F407C769567957695679575
:100440008091033E0E945200FF90EF90DF90CF908A
:1004500008951F920F920FB60F9211242F933F937E
:100460004F935F936F937F938F939F93AF93BF93BC
:10047000EF93FF93E0E0FAE013868581886085833F
:1004800085E00E94390080931C3E90931D3E809130
:10049000043E81110E9446018091163E9091173EC4
:1004A00001968093163E9093173EFF91EF91BF9176
:1004B000AF919F918F917F916F915F914F913F91FC
:1004C0002F910F900FBE0F901F901895F894FFCFAB
:1004D0003332313001B004020050009C02A200848B
:0604E000038403FF01008C
:00000001FF
